:100000000C9447050C946F050C946F050C946F05C8
:100010000C946F050C946F050C946F050C946F0590
:100020000C946F050C946F050C946F050C946F0580
:100030000C946F050C946F050C946F050C946F0570
:100040000C9406160C946F050C94D4150C94AE15F4
:100050000C946F050C946F050C946F050C946F0550
:100060000C9450160C946F0500000000003E5B4F8E
:100070005B3E3E6B4F6B3E1C3E7C3E1C183C7E3C08
:10008000181C577D571C1C5E7F5E1C00183C180016
:10009000FFE7C3E7FF0018241800FFE7DBE7FF30A6
:1000A000483A060E2629792926407F050507407F14
:1000B00005253F5A3CE73C5A7F3E1C1C08081C1C87
:1000C0003E7F14227F22145F5F005F5F06097F017D
:1000D0007F006689956A606060606094A2FFA29468
:1000E00008047E040810207E201008082A1C080836
:1000F0001C2A08081E101010100C1E0C1E0C303884
:100100003E3830060E3E0E06000000000000005F84
:1001100000000007000700147F147F14242A7F2AA0
:100120001223130864623649562050000807030062
:10013000001C2241000041221C002A1C7F1C2A08AE
:10014000083E080800807030000808080808000011
:1001500060600020100804023E5149453E00427F85
:10016000400072494949462141494D331814127FD4
:100170001027454545393C4A494931412111090774
:100180003649494936464949291E000014000000F5
:1001900040340000000814224114141414140041C7
:1001A00022140802015909063E415D594E7C121184
:1001B000127C7F494949363E414141227F414141BC
:1001C0003E7F494949417F090909013E4141517337
:1001D0007F0808087F00417F41002040413F017FA8
:1001E000081422417F404040407F021C027F7F0470
:1001F00008107F3E4141413E7F090909063E4151B9
:10020000215E7F09192946264949493203017F01A8
:10021000033F4040403F1F2040201F3F4038403FA9
:10022000631408146303047804036159494D4300BF
:100230007F4141410204081020004141417F0402F6
:10024000010204404040404000030708002054548D
:1002500078407F284444383844444428384444286B
:100260007F385454541800087E090218A4A49C78BE
:100270007F0804047800447D40002040403D007F1A
:100280001028440000417F40007C047804787C08FA
:100290000404783844444438FC18242418182424CE
:1002A00018FC7C08040408485454542404043F44B3
:1002B000243C4040207C1C2040201C3C4030403CE2
:1002C00044281028444C9090907C4464544C440042
:1002D00008364100000077000000413608000201A6
:1002E0000204023C2623263C1EA1A161123A404092
:1002F000207A38545455592155557941225454780F
:1003000042215554784020545579400C1E527212A7
:100310003955555559395454545939555454580030
:1003200000457C410002457D420001457C407D1234
:1003300011127DF0282528F07C5455450020545496
:100340007C547C0A097F4932494949323A44444441
:100350003A324A4848303A4141217A3A424020787C
:10036000009DA0A07D3D4242423D3D4040403D3C7D
:1003700024FF2424487E4943662B2FFC2F2BFF09A2
:1003800029F620C0887E0903205454794100004496
:100390007D413048484A32384040227A007A0A0A81
:1003A000727D0D19317D2629292F282629292926F4
:1003B00030484D4020380808080808080808382F39
:1003C00010C8ACBA2F102834FA00007B00000814C3
:1003D0002A142222142A14085500550055AA55AA99
:1003E00055AAFF55FF55FF000000FF00101010FF39
:1003F00000141414FF001010FF00FF1010F010F094
:10040000141414FC001414F700FF0000FF00FF1484
:1004100014F404FC141417101F10101F101F1414D0
:10042000141F00101010F0000000001F101010101A
:100430001F10101010F010000000FF10101010100E
:1004400010101010FF10000000FF140000FF00FF4C
:1004500000001F10170000FC04F4141417101714E8
:1004600014F404F40000FF00F7141414141414140A
:10047000F700F7141414171410101F101F1414147D
:10048000F4141010F010F000001F101F0000001FE7
:1004900014000000FC140000F010F01010FF10FF1A
:1004A000141414FF141010101F00000000F010FFAF
:1004B000FFFFFFFFF0F0F0F0F0FFFFFF0000000093
:1004C00000FFFF0F0F0F0F0F3844443844FC4A4A17
:1004D0004A347E02020606027E027E0263554941CC
:1004E000633844443C04407E201E2006027E020203
:1004F00099A5E7A5991C2A492A1C4C7201724C3017
:100500004A4D4D303048784830BC625A463D3E49ED
:100510004949007E0101017E2A2A2A2A2A44445F91
:10052000444440514A444040444A51400000FF0185
:1005300003E080FF000008086B6B08361236243693
:10054000060F090F060000181800000010100030F8
:1005500040FF0101001F01011E00191D1712003C80
:100560003C3C3C0000000000000103070F1F3F7FE0
:100570000080C0E0F0F8FCFE000000002300260030
:100580002900000000080002010000030407000029
:1005900000000000000000000000240027002A00E6
:1005A000DB40A4A62EAF2000A1C8D300408DAED55D
:1005B00080A80102040810204080010204081020D5
:1005C00001020408102000000000250028002B0074
:1005D00004040404040404040202020202020303E9
:1005E000030303030000600000000000000000009F
:1005F0000000000000E0000000000000000000001B
:1006000000000001E0000000000000000000000009
:10061000000001F0000000000000000000000000E9
:100620000003F000000000000000000000000000D7
:1006300007F00000000000000000000000000007BC
:10064000F8000000000000000000000000000FF8AB
:1006500000000003C0007E000001E0007F0FF800F2
:10066000000003C000FE000001E000FFEFF8000002
:100670000003C000FE000001E000FFFFF8000000E2
:1006800003C000F00000000F007FFE7FC0000003E9
:10069000C000F00000000F003FFE7FF83FF1FBCFED
:1006A000FCFEF3BC3DEFE01FFE7FFF7FFBFFDFFEA4
:1006B000FEFFBC3DEFE01FC6FFFF7FFBFFDFFEFE3E
:1006C000FFBC3DEFE00FE3C7FE787BC3DE1EF0FF0B
:1006D000BC3DEF0007FF87FC787BC3DE1EF0F83CD3
:1006E0003DEF0001FFFFF0007BC3C01EF0F03C3D7A
:1006F000EF0001F37FE03FFBC3CFFEF0F03C3DEFA6
:100700000003E33F807FFBC3DFFEF0F03C3DEF00E2
:1007100007E73C00787BC3DE1EF0F03C3DEF0007AE
:10072000FFBE00787BC3DE1EF0F03C3DEF0007FF0C
:10073000FE00787BC3DE1EF0F03C3DEF000FFFFEB5
:10074000007FFBFFDFFEF0F03FFDEFE00FFFFF005B
:100750007FFBFFDFFEF0F03FFDEFE00FF9FF003E13
:1007600079F9CF9EF0F01F3DE7E01FF1FF00000098
:100770000000000000000000001F80FF007FFFFF5E
:10078000FFFFFFFFFFFFFFE01C007F007FFFFFFF79
:10079000FEB46D888D18E000001F007FFFFFFFFE94
:1007A00095AD7DB577E000000F007FFFFFFFFEA550
:1007B000AD9D8D19E0000006007FFFFFFFFEB5AD87
:1007C000EDB57EE0000000000001800000000000A8
:1007D000000000000380000000000000000000078F
:1007E000C000000000000000000007C00000000082
:1007F00000000000000FC00000000000000000002A
:100800001FE00000000000000000001FE0000000EA
:100810000000000000003FE00000000000000000B9
:10082000003FF00000000000000000007FF000002A
:1008300000000000001FF87FF00000000000000032
:100840003FFE7FF0000000000000003FFF7FF0004F
:100850000000000000001FFFFBE00000000000009F
:10086000000FFFF9FFC00000000000000FFFF9FFBC
:10087000F800000000000007FFF1FFFF000000008B
:10088000000003FC73FFFF80000000000001FE3F3A
:10089000FFFF80000000000000FF1E0FFF000000AF
:1008A000000000007FFE1FFC000000000000003F71
:1008B000FFFFF8000000000000000FDFFFE0000075
:1008C00000000000001F19FFC00000000000000031
:1008D0003F3CFF00000000000000007E7CF80000AC
:1008E0000000000000007FFE7C000000000000000F
:1008F00000FFFFFC0000000000000000FFFFFE0002
:1009000000000000000000FFFFFE000000000000EB
:100910000001FFEFFE0000000000000001FFCFFE1D
:100920000000000000000003FF07FE0000000000C0
:10093000000003FC07FE0000000000000003F003BD
:10094000FE00000000000000018000FE000000002A
:100950000000000000007E00000000000000000019
:10096000003E000000000000000000000C0000003D
:10097000000000078000FC000003C00000000780AA
:1009800001FC000003C0000000078001FC00000320
:10099000C0000000078001E00000001E000000070A
:1009A0008001E00000001E007FE3F79FF9FDE7787B
:1009B0007BDFC0FFF7FFBFFDFDFF787BDFC0FFF7E8
:1009C000FFBFFDFDFF787BDFC0F0F787BC3DE1FF97
:1009D000787BDE00F0F787BC3DE1F0787BDE00003D
:1009E000F787803DE1E0787BDE007FF7879FFDE1C0
:1009F000E0787BDE00FFF787BFFDE1E0787BDE007B
:100A0000F0F787BC3DE1E0787BDE00F0F787BC3D86
:100A1000E1E0787BDE00F0F787BC3DE1E0787BDE4B
:100A200000FFF7FFBFFDE1E07FFBDFC0FFF7FFBF87
:100A3000FDE1E07FFBDFC07CF3F39F3DE1E03E7B27
:100A4000CFC00000000000000000000000FFFFFF1A
:100A5000FFFFFFFFFFFFFFC0FFFFFFFFFD68DB1190
:100A60001A31C0FFFFFFFFFD2B5AFB6AEFC0FFFFEB
:100A7000FFFFFD4B5B3B1A33C0FFFFFFFFFD6B5BCE
:100A8000DB6AFDC02200FF2100006F173D2011240A
:100A90001FBECFEFD8E0DEBFCDBF24E0ACE0B2E0B8
:100AA00001C01D92AE3DB207E1F712E0A0E0B1E057
:100AB000EEE5F6E402C005900D92AC30B107D9F72F
:100AC00015E0C6E4D5E004C02197FE010E941E2176
:100AD000C534D107C9F70E9431190C9422230C9414
:100AE0000000089596E0899FD0011124A35FBB4FB9
:100AF00090967C936E935F9791E091969C939197DB
:100B0000E0917A04F0917B0490917904992339F073
:100B1000309751F0811108C08091290409943097D1
:100B200019F05C968C91FACF0895CF92DF92EF92F4
:100B3000FF920F931F9396E0899FF0011124E35FCA
:100B4000FB4F11A2278D30A12130310551F178F0F2
:100B50002230310509F451C02330310509F452C067
:100B60001F910F91FF90EF90DF90CF900895662333
:100B7000B9F361E070E00E9472052FB7F89480919C
:100B8000CC029091CD02A091CE02B091CF022FBFA6
:100B90008093650490936604A0936704B0936804FF
:100BA000DFCF9FB7F894C090CC02D090CD02E090F8
:100BB000CE02F090CF029FBF0091650410916604B1
:100BC0002091670430916804C01AD10AE20AF30A3E
:100BD000009177041091780430E020E00C151D0599
:100BE0002E053F0550F462E070E01F910F91FF90D9
:100BF000EF90DF90CF900C9472056111B1CF63E05C
:100C000070E0F3CF70E060E0F0CF08950895AF9208
:100C1000BF92CF92DF92EF92FF920F931F93CF93E9
:100C2000DF936C017B018B01040F151FEB015E014B
:100C3000AE18BF08C017D10759F06991D601ED91E0
:100C4000FC910190F081E02DC6010995892B79F77F
:100C5000C501DF91CF911F910F91FF90EF90DF9031
:100C6000CF90BF90AF900895FC01538D448D252FF8
:100C700030E0842F90E0821B930B541710F0CF9636
:100C8000089501970895FC01918D828D981761F068
:100C9000A28DAE0FBF2FB11D5D968C91928D9F5F7F
:100CA0009F73928F90E008958FEF9FEF0895FC015E
:100CB000918D828D981731F0828DE80FF11D858D11
:100CC00090E008958FEF9FEF0895FC01918D228DA4
:100CD000892F90E0805C9F4F821B91098F73992729
:100CE000089584ED92E00E94650621E0892B09F4C5
:100CF00020E0822F089580E090E0892B29F00E9467
:100D0000710681110C9400000895FC01A48DA80FB8
:100D1000B92FB11DA35ABF4F2C91848D90E001963D
:100D20008F739927848FA689B7892C93A089B1895D
:100D30008C91837080648C93938D848D981306C0FE
:100D40000288F389E02D80818F7D80830895EF9262
:100D5000FF920F931F93CF93DF93EC0181E0888F75
:100D60009B8D8C8D98131AC0E889F989808185FF45
:100D700015C09FB7F894EE89FF896083E889F989E7
:100D800080818370806480839FBF81E090E0DF91E9
:100D9000CF911F910F91FF90EF900895F62E0B8D3C
:100DA00010E00F5F1F4F0F731127E02E8C8D8E11F7
:100DB0000CC00FB607FCFACFE889F989808185FF5E
:100DC000F5CFCE010E948506F1CFEB8DEC0FFD2F04
:100DD000F11DE35AFF4FF0829FB7F8940B8FEA8919
:100DE000FB8980818062CFCFCF93DF93EC01888D28
:100DF0008823B9F0AA89BB89E889F9898C9185FD96
:100E000003C0808186FD0DC00FB607FCF7CF8C9123
:100E100085FFF2CF808185FFEDCFCE010E94850650
:100E2000E9CFDF91CF910895833081F028F48130AC
:100E300099F08230A9F008958730A9F08830C9F080
:100E40008430B1F4809180008F7D03C08091800058
:100E50008F7780938000089584B58F7784BD08953F
:100E600084B58F7DFBCF8091B0008F778093B000E9
:100E700008958091B0008F7DF9CFCF93DF93282F15
:100E800030E0F901EE57FA4F8491F901EE54FA4F30
:100E9000D491F901E053FA4FC491CC23A1F0811110
:100EA0000E941407EC2FF0E0EE0FFF1FE858FA4FF6
:100EB000A591B491EC91ED2381E090E009F480E0FC
:100EC000DF91CF91089580E090E0FACF862F0C94C7
:100ED0003D071F93CF93DF93282F30E0F901EE57A2
:100EE000FA4F8491F901EE54FA4FD491F901E0538D
:100EF000FA4FC491CC23A9F0162F81110E94140738
:100F0000EC2FF0E0EE0FFF1FEA53FA4FA591B491DA
:100F10008FB7F894EC91111108C0D095DE23DC93C3
:100F20008FBFDF91CF911F910895DE2BF8CF862FD1
:100F3000642F0C946907CF93DF9390E0FC01EE548B
:100F4000FA4F249180539A4FFC0184918823C9F071
:100F500090E0880F991FFC01EA56FA4FA591B491D1
:100F6000FC01EA53FA4FC591D49161110DC09FB7AE
:100F7000F8948C91209582238C9388812823288350
:100F80009FBFDF91CF910895623051F49FB7F894DD
:100F90003C91822F809583238C93E8812E2BEFCF79
:100FA0008FB7F894EC912E2B2C938FBFEACF862F1E
:100FB000642F0C949B073FB7F8948091B4029091F2
:100FC000B502A091B602B091B70226B5A89B05C0A4
:100FD0002F3F19F00196A11DB11D3FBFBA2FA92FB8
:100FE000982F8827BC01CD01620F711D811D911DB5
:100FF00042E0660F771F881F991F4A95D1F7089521
:101000008F929F92AF92BF92CF92DF92EF92FF9218
:101010004B015C010E94DB076B017C010E94DB0736
:101020006C197D098E099F09683E73408105910501
:10103000A8F321E0821A9108A108B10888EEC80E31
:1010400083E0D81EE11CF11C81149104A104B104B9
:1010500029F7FF90EF90DF90CF90BF90AF909F90D7
:101060008F90089585ED8093BC008091BC0084FD35
:10107000FCCF1092BF02089520916C02260F3327F7
:10108000331F21323105ECF42091BF02FC0190E0C6
:1010900080E0243069F082E00895A0916C022191F3
:1010A000AC01445B5D4FA40FB52FB11D2C9301968D
:1010B000861798F380916C02680F60936C0280E051
:1010C000089581E00895E091C1028091C002E8177F
:1010D00030F4F0E0E45DFD4F808190E008958FEF03
:1010E0009FEF08959091C1028091C0022FEF3FEFD2
:1010F000981748F4E92FF0E0E45DFD4F208130E0DF
:101100009F5F9093C102C90108958091C0029091A0
:10111000C102891B990B0895CF92DF92EF92FF9243
:101120000F931F93CF93DF937C01CB018A01209112
:10113000D302222389F0EB016B01C40ED51ECC151E
:10114000DD0569F06991D701ED91FC910190F08185
:10115000E02DC7010995F3CF642F0E943C08C80118
:10116000DF91CF911F910F91FF90EF90DF90CF9083
:101170000895CF93DF931F92CDB7DEB76983209197
:10118000D3022223F9F02091D002203258F021E03E
:1011900030E0FC013383228390E080E00F90DF9108
:1011A000CF9108958091D102E82FF0E0E45FFD4FE8
:1011B000998190838F5F8093D1028093D00281E0E8
:1011C00090E0ECCF61E0CE0101960E943C08F7CFA1
:1011D0002091D00281E0213208F044C08091BF020A
:1011E0008111FCCF8091D20292E09093BF0291E0F6
:1011F0009093BE029FEF90938F021092B1022093C2
:10120000B002ACE0B2E0E0E9F2E090E0291331C0D6
:101210001092B2029091B202880F892B8093B20291
:101220008091BD02813049F51092BD028091B202D9
:101230008093BB008091BC0083FDF8CF85EC809348
:10124000BC008091BF028230E1F380918F028F3F1A
:10125000B1F080918F028032A1F080918F028033B3
:1012600091F084E01092D1021092D0021092D30239
:1012700008953D9131939F5FC9CF85EEE0CF80E027
:10128000F1CF82E0EFCF83E0EDCFEF92FF920F93AB
:101290001F93CF93DF93EC01EC80FD806E157F05EB
:1012A0000CF070C057FF04C0240F351F50E040E021
:1012B0008E819F81FA01E20FF31F8E179F071CF4A6
:1012C0009C01241B350B121613060CF05BC0922FE9
:1012D000842F8695869586958E9DD0018F9DB00D25
:1012E00011246A0F7B1FAF8DB8A1A60FB71F4770DF
:1012F00049F188E0841B482F682F70E0FB01E0591A
:10130000FA4FE491281708F063C0621B71092FEFB0
:1013100030E002C0359527956A95E2F7E223013067
:10132000110539F0B0F10230110561F58C91E82713
:1013300002C08C91E82BEC93941720F12C813D8115
:10134000A20FB31FE92FE41BE83078F0023011053B
:1013500021F58E2F9C9190959C932C813D81A20F1D
:10136000B31F88508830B0F7E770EE2359F0F0E0F3
:10137000E859FA4FE49101301105F9F010F102300B
:10138000110519F1DF91CF911F910F91FF90EF900F
:101390000895E0958C91E823CECF81E001151105E9
:1013A00009F480E081959E2F8C932C813D81A20FC2
:1013B000B31F98509830C0F7D7CF8C91E82BEC939F
:1013C000E1CFE0958C91E823FACF8C91E827F7CF15
:1013D0000130110509F4ADCFE0F20230110509F436
:1013E000A5CFAE0DBF1DAECF0F931F93CF93DF934D
:1013F00077FF04C0260F371F70E060E0DC01149611
:10140000CD91DC91FB01E20FF31FCE17DF071CF437
:101410009E01261B370B121613064CF5FA0157FDD9
:101420003796A3E0F595E795AA95E1F7EC9FD001F3
:10143000ED9FB00DFC9FB00D11246A0F7B1FDC01E6
:101440005F96ED91FC91E60FF71F4770552781E0FD
:1014500090E001C0880F4A95EAF7482F0130110546
:1014600059F0A8F02E0F3F1F02301105E1F0DF9177
:10147000CF911F910F9108952E0F3F1FE217F30791
:10148000B1F38191DF011197842B8C93F7CF809575
:101490002E0F3F1FE217F30751F39191DF011197D0
:1014A00098239C93F7CFE217F30709F38191DF01AB
:1014B000119784278C93F7CF0F931F93FA01DC01C8
:1014C00056964C9156974230E9F04330A1F14130A5
:1014D00061F514964D915C91DA01AE1BBF0BFD01D5
:1014E000E21BF30B77FD0BC0DC0116964D915C916E
:1014F0006417750724F4AB01BF010E94F4091F9122
:101500000F91089514964D915C91DA01A61BB70BCB
:10151000BD0161507109DC0116964D915C91DA01B3
:10152000AE1BBF0BFD01E21BF30B77FDE8CFAF0154
:101530000E944509E4CF16964D915C91DA01A61BF5
:10154000B70BBD0161507109CDCF0F931F93FA0105
:10155000DC0156964C9156974230A9F0433091F1F8
:10156000413019F514964D915C91DA01AE1BBF0B19
:10157000FD013197F7FD04C0AB01BF010E94450991
:101580001F910F91089514964D915C91DA01A61B5D
:10159000B70BBD01DC0116964D915C91DA01AE1BD3
:1015A000BF0BFD013197621B730BF7FDE9CFDC0127
:1015B00016964D915C91E417F50714F7AF010E9460
:1015C000F409DECF16964D915C91DA01A61BB70B9C
:1015D000BD01621B730BCECFFC0177FD64C080851B
:1015E0009185681779070CF05EC057FD5CC0828555
:1015F0009385481759070CF056C086898230B1F0A0
:10160000833029F1813041F484819581841B950BCD
:10161000AB01BC01615071092130310509F108F4B9
:1016200043C02230310509F463C008958481958157
:10163000DC01A61BB70BBD01615071098681978142
:10164000DC01A41BB50BAD0141505109E5CF8681EA
:101650009781861B970BBA01AC0141505109DCCF31
:10166000CA0157FD0796A3E095958795AA95E1F7DE
:10167000A481B5818A9F90018B9F300D9A9F300D78
:101680001124620F731F078CF0A1E02DE60FF71FE6
:101690004770552721E030E001C0220F4A95EAF754
:1016A0008081822B80830895CA0157FD079633E01D
:1016B000959587953A95E1F7A481B5818A9F900128
:1016C0008B9F300D9A9F300D1124620F731F078C72
:1016D000F0A1E02DE60FF71F4770552781E090E05D
:1016E00001C0880F4A95EAF7809590818923DACF67
:1016F000CA0157FD079623E0959587952A95E1F74E
:10170000A481B5818A9F90018B9F300D9A9F300DE7
:101710001124620F731F078CF0A1E02DE60FF71F55
:101720004770552721E030E001C0220F4A95EAF7C3
:1017300080818227B7CF08958EBD00000DB407FECB
:10174000FDCF8EB50895FF920F931F93CF93DF9334
:10175000F82ED92FC62F8091B7049091B804009726
:1017600009F452C02091BB0431E03093D30220939E
:10177000D2021092D1021092D002DC01ED91FC91C4
:101780000190F081E02D60E009950F2D1D2FD1E033
:10179000FF24F394C1508091B7049091B804CF3FD7
:1017A00061F1D032C8F00E94E8088091B7049091AE
:1017B000B8042091BB04F092D3022093D20210927D
:1017C000D1021092D002DC01ED91FC910190F081E8
:1017D000E02D60E00995D1E08091B7049091B804C4
:1017E000F8016491DC01ED91FC910190F081E02D14
:1017F0000995DF5F0F5F1F4FCDCFDF91CF911F9115
:101800000F91FF900C94E808E091C704F091C80490
:1018100090818091CD048095892380830F2D1D2F89
:10182000C15008F438C0F80184912091B50430917A
:10183000B604232B29F00E949C0B0F5F1F4FF0CFA3
:1018400028E030E040E8E091C304F091C4049091B6
:10185000CB04582F5423D9F05081952B9083E091DD
:10186000C504F091C60490815091CC04952B9083CF
:10187000E091C504F091C60450819091CC049095FC
:1018800095239083469521503109E9F6D6CF5081B2
:1018900090959523E3CFDF91CF911F910F91FF900A
:1018A00008951F93CF93DF93EC018D8D9E8D00974C
:1018B00021F1162F29A131E03093D3022093D202D7
:1018C0001092D1021092D002DC01ED91FC910190B6
:1018D000F081E02D60E009958D8D9E8DDC01ED910C
:1018E000FC910190F081E02D612F09958D8D9E8DE9
:1018F000DF91CF911F910C94E808ADA5BEA59C91F6
:101900008BA9809589238C938B8D9C8D892B31F0AD
:10191000862FDF91CF911F910C949C0B28E030E033
:1019200080E8A9A5BAA599A9462F4823C1F04C91F2
:10193000942B9C93ABA5BCA59C914AA9942B9C93FA
:10194000ABA5BCA54C919AA9909594239C938695A0
:101950002150310931F7DF91CF911F9108954C91BA
:1019600090959423E6CF8CBD9DBD0895EF92FF9294
:101970000F931F93CF93DF938091B7049091B80496
:10198000892B09F493C02091CF043091D004409169
:10199000D1045091D20460E074E284EF90E00E94A0
:1019A000E82020513109410951095695479537954D
:1019B00027952093B80065E084E89AE00E94A30B85
:1019C00060919E0461508AE994E00E94510C20913C
:1019D000A0043091A104C901079697FD079623E062
:1019E000959587952A95E1F720919E0430919F0463
:1019F000829F8001839F100D929F100D1124C09132
:101A0000B904D091BA048091B7049091B8040C0F36
:101A10001D1F009709F489C02091BB0431E0309369
:101A2000D3022093D2021092D1021092D002DC0194
:101A3000ED91FC910190F081E02D60E40995FF2487
:101A4000F394EE24E3948091B7049091B8040C17BA
:101A50001D0709F442C0BFE1BF15D0F40E94E80899
:101A60008091B7049091B8042091BB04E092D30216
:101A70002093D2021092D1021092D002DC01ED919B
:101A8000FC910190F081E02D60E40995FF24F3942E
:101A90008091B7049091B8046991DC01ED91FC91BB
:101AA0000190F081E02D0995F394CDCF8091B5049C
:101AB0009091B604892B31F08091D8049091D9048B
:101AC0000E94B30CE091C904F091CA049081809106
:101AD000CE048095892380836ECF0E94E808809190
:101AE000B7049091B804892B09F460C02091D30405
:101AF0003091D4044091D5045091D60460E074E252
:101B000084EF90E00E94E8202051310941095109F9
:101B100056954795379527952093B800DF91CF913B
:101B20001F910F91FF90EF900895E091C704F091FD
:101B3000C80480819091CD04892B80830C171D07E8
:101B400071F289912091B5043091B604232B19F0DC
:101B50000E949C0BF3CF28E030E040E8E091C30402
:101B6000F091C4049091CB04582F5423D9F05081A4
:101B7000952B9083E091C504F091C604908150911B
:101B8000CC04952B9083E091C504F091C60450815C
:101B90009091CC04909595239083469521503109DE
:101BA000E9F6CCCF508190959523E3CFE091C9041D
:101BB000F091CA0480819091CE04892B8083AECFAE
:101BC0001F93CF93DF93EC01162F8D8D9E8D892B64
:101BD000B1F12DA93EA94FA958AD60E074E284EFA0
:101BE00090E00E94E82020513109410951095695A1
:101BF0004795379527952093B80066EA111167EA53
:101C0000CE010E94510C8D8D9E8D892B41F129AD05
:101C10003AAD4BAD5CAD60E074E284EF90E00E94C1
:101C2000E8202051310941095109569547953795CA
:101C300027952093B800DF91CF911F9108958B8D48
:101C40009C8D892B21F08EAD9FAD0E94B30CEFA52A
:101C5000F8A990818CA9809589238083CECFEFA5A8
:101C6000F8A980819CA9892B8083E5CF0895FC0188
:101C70006370668B8481958126813781613039F06C
:101C8000633029F0918780873387228708953187D1
:101C900020879387828708952F923F924F925F9279
:101CA0006F927F928F929F92AF92BF92CF92DF926C
:101CB000EF92FF920F931F93CF93DF93CDB7DEB7D1
:101CC0006A970FB6F894DEBF0FBECDBF9A8F898F8B
:101CD0007A8369834A01D22E18870F833701BC2C7F
:101CE000DC0159962D913C915A972115310509F047
:101CF00015C118968D919C911997681779070CF06A
:101D0000D7C11A968D919C91481759070CF0D0C1F4
:101D10004C2C512CB6E0CB9E600D711D11247C879C
:101D20006B87161617060CF0C3C1EA2DF0E0FA8790
:101D3000E98793E0EE0FFF1F9A95E1F7F88BEF87A5
:101D4000CF01840F951F181619060CF0B1C1A98D8B
:101D5000BA8D58968C91811104C0BFEABD1508F464
:101D6000D394A98DBA8DED91FC9111970284F385DE
:101D7000E02DCD010995B5E0DB9EC0011124E9817C
:101D8000FA81FC83EB83312C212C9C0128593F4F95
:101D9000388F2F8B4A2D50E05E8B4D8BEF89F88D5D
:101DA000E20DF31D44919E828D82D12CC12C69815C
:101DB0007A81620D731D7A8B698B842F90E09C8BE6
:101DC0008B8BE98DFA8DA081B18140FF82C0F1E05B
:101DD000BF126FC0AF126DC01C96ED91FC912F81A8
:101DE0003885A4014C0D5D1D69897A89898D9A8D8C
:101DF0000995EB89FC89F595E7954E2F5FEFC51A9C
:101E0000D50A6D817E818D899E89680F791F7E83B9
:101E10006D8398E0C916D10481F6AFEF2A1A3A0A09
:101E2000EB81FC81E40DF51DFC83EB83F5E02F16BF
:101E3000310409F0B3CF2F81388526153705B9F065
:101E4000A98DBA8DED91FC91B1E0BB1257C0AB12D8
:101E500055C069817A816B5F7F4F0088F189E02DE1
:101E6000830128E030E0A401898D9A8D0995A98D20
:101E7000BA8DED91FC9111970688F789E02DCD017F
:101E80006A960FB6F894DEBF0FBECDBFDF91CF913B
:101E90001F910F91FF90EF90DF90CF90BF90AF9088
:101EA0009F908F907F906F905F904F903F902F907A
:101EB00009941E96ED91FC91EF80F88409851A85AE
:101EC00092014D815E816B817C81898D9A8D09950E
:101ED00090CF2F8138852615370509F48ACF31E058
:101EE000B31207C0A31205C01C96ED91FC9193019B
:101EF00078CF1E96ED91FC917301E0CF6B857C85C8
:101F0000641975090684F785E02D73010F8518891A
:101F10009201A401898D9A8D0995A9CFF901349672
:101F20009491329745915491D91AB7E0DB9E400DB8
:101F3000511D1124F901259134913C8B2B8BFA0111
:101F400025903490FA013296749031963491398B01
:101F5000329664903196449041E04C1518F04A1541
:101F600008F07FC0662D062C000C770B7C836B83FA
:101F7000842D042C000C990B9E838D83A98DBA8D22
:101F8000ED91FC9111970284F385E02DCD01099527
:101F9000512CD12CC12CEA2DF0E0FA87E9872B2DAA
:101FA00030E03C872B87A401440D511D47FC5A9516
:101FB000588F4F8B69817A81660D711D67FC7A9508
:101FC0007E876D877989C71608F051CF2C2D30E0B8
:101FD0004D815E81420F531FA985BA854A9FC0017A
:101FE0004B9F900D5A9F900D1124FC01E80DF91D97
:101FF000F88BEF87852D612C4F89588D420F531F29
:102000005E8B4D8B671408F050C044244394480EF7
:10201000877041F4C1010196EB89FC89E20DF31D43
:10202000D4901C01D7FE19C0A98DBA8DED91FC91F9
:10203000662D70E0B1E0BB1219C0AB1217C02D8540
:102040003E85620F731F0484F585E02D2F8138854E
:102050004D895E89898D9A8D0995DD0C6394842D57
:10206000D1CF1E821D821C821B8288CF4B815C8156
:10207000640F751FAB85BC856A9FC0016B9F900D77
:102080007A9F900D112469817A81680F791F0684E7
:10209000F785E02DEF80F88409851A859D014F852D
:1020A0005889898D9A8D0995D8CF570CC3948ACFBA
:1020B0006A960FB6F894DEBF0FBECDBFDF91CF9109
:1020C0001F910F91FF90EF90DF90CF90BF90AF9056
:1020D0009F908F907F906F905F904F903F902F9048
:1020E00008958F929F92AF92CF92EF92FF920F93AB
:1020F0001F93CF93DF93EC01262F898D9A8D009744
:1021000009F051C06A30D1F41D861C868D8948E0E3
:10211000849F900111248E859F85820F931F9F8736
:102120008E8781E090E0DF91CF911F910F91FF901A
:10213000EF90CF90AF909F908F9008956D3089F37E
:10214000CC88AD888F898823C1F08C859D8536E049
:10215000C39E800D911D1124488559854817590744
:1021600064F44E855F851D861C8638E0A39EC00101
:102170001124840F951F9F878E87EA88FB88088922
:1021800019894E855F856C857D85CE010E944C0E38
:102190002C898C859D8546E0249F800D911D1124FE
:1021A0009D878C87BECF6A3069F41D861C86FC0132
:1021B0003696E4912D898E859F85E29F800D911D35
:1021C0001124ADCF6D3009F4ACCFFC0134963491BD
:1021D000631708F4A6CF3196E491E61708F4A1CF6F
:1021E000FC01329685909490462F431B342F47E094
:1021F000349F800C911C1124F40132963491319655
:10220000E4913323A9F1EE2399F1CC88F4013596BA
:10221000E491AD884F89442301F10E2E000CFF0B91
:10222000E30FF11DCE9EA001CF9E500D11246C85B1
:102230007D85460F571F68857985641775076CF48F
:102240004E855F851D861C86FC013696E491AE9E08
:10225000400D511D11245F874E87EA88FB8808894D
:1022600019894E855F856C857D85CE010E944C0E57
:10227000F4013496E4912C898C859D85E29F800D34
:10228000911D11248DCF6F927F928F929F92AF926A
:10229000BF92CF92DF92EF92FF920F931F93CF9353
:1022A000DF93EC016B015A0139014801E881F981A2
:1022B0000284F385E02D0995E881F9810288F3898C
:1022C000E02D87019301A501B601CE010995A50175
:1022D000480D591D41505109E881F9810288F3895F
:1022E000E02D9301B601CE010995E881F9810088BE
:1022F000F189E02D9401A501B601CE010995C60C26
:10230000D71CB60161507109E881F9810088F18913
:10231000E02D9401A501CE010995E881F981068897
:10232000F789E02DCE01DF91CF911F910F91FF90A2
:10233000EF90DF90CF90BF90AF909F908F907F9065
:102340006F9009946F927F928F929F92AF92BF92FB
:10235000CF92DF92EF92FF920F931F93CF93DF9371
:102360005C01EB016A01490138018701DC01ED9153
:10237000FC916217730719F5641675062CF0962DFB
:10238000872D3A01C92ED82E9601261937092F5FBD
:102390003F4F048CF58DE02DA301BE01C5010995C9
:1023A000DF91CF911F910F91FF90EF90DF90CF9031
:1023B000BF90AF909F908F907F906F90089546153B
:1023C000570591F42617370724F0892D4B01C22FAA
:1023D000D82F9E01281939092F5F3F4F068CF78DA2
:1023E000E02DA601B401DACF0284F385E02D099532
:1023F000D501ED91FC910488F589E02D83019401CC
:10240000A601BE01C5010995D501ED91FC91068893
:10241000F789E02DC501DF91CF911F910F91FF90BA
:10242000EF90DF90CF90BF90AF909F908F907F9074
:102430006F900994EF92FF920F931F93DC011A960D
:102440000D911C911B9718962D913C911997ED9128
:10245000FC9100A0F1A1E02D7B0150E040E070E094
:1024600060E009951F910F91FF90EF9008954F92B2
:102470005F926F927F928F929F92AF92BF92CF9214
:10248000DF92EF92FF920F931F93CF93DF936C0134
:102490002B015A0139014801DC01ED91FC910284C4
:1024A000F385E02D0995E201640C751CD601ED91D0
:1024B000FC91C615D7055CF40088F189E02D8701F1
:1024C0009401A501BE01C60109952196EFCF0688AA
:1024D000F789E02DC601DF91CF911F910F91FF90F9
:1024E000EF90DF90CF90BF90AF909F908F907F90B4
:1024F0006F905F904F9009948F929F92AF92BF928E
:10250000CF92DF92EF92FF920F931F93CF93DF93BF
:10251000EC015B014A016901E881F9810284F385DC
:10252000E02D099595012C0D3D1D21503109E881C3
:10253000F9810488F589E02D78018401A401B501B1
:10254000CE010995E881F9810688F789E02DCE0151
:10255000DF91CF911F910F91FF90EF90DF90CF907F
:10256000BF90AF909F908F9009948F929F92AF925F
:10257000BF92CF92DF92EF92FF920F931F93CF9370
:10258000DF93EC015B014A0169017801E881F9817F
:102590000284F385E02D0995C80CD91C86010150F1
:1025A0001109E881F9810488F589E02D9501A401DC
:1025B000B501CE010995E881F9810688F789E02DFA
:1025C000CE01DF91CF911F910F91FF90EF90DF909F
:1025D000CF90BF90AF909F908F900994EF92FF9211
:1025E0000F931F93DC01ED91FC9100A0F1A1E02D70
:1025F00009951F910F91FF90EF9008950F931F93EE
:10260000DC01ED91FC91068CF78DE02D09951F9171
:102610000F9108950F931F93DC01ED91FC91048CB1
:10262000F58DE02D09951F910F910895DC01ED9135
:10263000FC910084F185E02D09943F924F925F92C6
:102640006F927F928F929F92AF92BF92CF92DF92C2
:10265000EF92FF920F931F93CF93DF935C017B0167
:102660004A016901390187E0680E711C93E0759495
:1026700067949A95E1F72B01400E511E10E000E09F
:10268000312CD0E0C0E0CE0187709927330C892B24
:1026900059F4FE0183E0F595E7958A95E1F7E00F9F
:1026A000F11FE80DF91D349037FE0AC021E030E03B
:1026B000A701B5016C0F7D1F8AE994E00E941613F3
:1026C0002196CC16DD06F9F68FEFE81AF80A060D0A
:1026D000171DE414F504A9F6DF91CF911F910F9116
:1026E000FF90EF90DF90CF90BF90AF909F908F9032
:1026F0007F906F905F904F903F9008952F923F9200
:102700004F925F926F927F928F929F92AF92BF9201
:10271000CF92DF92EF92FF920F931F93CF93DF93AD
:1027200000D000D000D0CDB7DEB73C016A013E83B7
:102730002D83FC82EB825801A41AB50AB7FE03C0B0
:10274000B194A194B1088D809E80861A970A97FE55
:1027500003C09194819491088A149B045CF0902F9B
:10276000812F0D811E819D838E839C2D8D2D6B016C
:10277000692F782F0C151D055CF09D818E817E835D
:102780006D83692F782F902F812F8601C92ED82E27
:102790001601201A310A2B012D813E81421A530A5B
:1027A00057FE03C0519441945108710137FE03C094
:1027B0003FEFE31AF30AF594E7948D819E81861723
:1027C00097075CF5A1E0B0E0BA83A983C016D106F3
:1027D0004CF1D301ED91FC910484F585E02D2B8122
:1027E0003C81A8016D817E818A149B041CF04D817F
:1027F0005E81B801C3010995E418F508F7FE0AC027
:102800002D813E8189819A81280F391F3E832D8336
:10281000E20CF31C0F5F1F4FD9CF2FEF3FEF3A832E
:102820002983D4CF26960FB6F894DEBF0FBECDBF56
:10283000DF91CF911F910F91FF90EF90DF90CF909C
:10284000BF90AF909F908F907F906F905F904F90D0
:102850003F902F900895089590E080E00895209192
:10286000A0043091A104C901079697FD079623E0C3
:10287000959587952A95E1F720919E0430919F04C4
:10288000829FA001839F500D929F500D112470E0F4
:1028900060E08091B9049091BA040C941423FB0178
:1028A00001900020E9F73197AF01461B570BDC017F
:1028B000ED91FC910280F381E02D0994CF93DF9399
:1028C000FC0144815581608171818AE994E00E9414
:1028D0000706EC0168E771E08AE994E00E944F1472
:1028E0008C0F9D1FDF91CF9108958F929F92AF9291
:1028F000BF92EF92FF920F931F93CF93DF93CDB7C9
:10290000DEB7A1970FB6F894DEBF0FBECDBF7C0136
:10291000FA01CB0119A2223008F42AE08E010F5DE2
:102920001F4F822E912CB12CA12CBF01A501940127
:102930000E94E820F901CA016A300CF5605DD801F7
:102940006E938D01232B242B252B79F790E080E0CB
:10295000109721F0BD01C7010E944F14A1960FB638
:10296000F894DEBF0FBECDBFDF91CF911F910F91C5
:10297000FF90EF90BF90AF909F908F900895695C0B
:10298000DECF0E9406230F931F93CF93DF93EC01BA
:1029900088819981009759F02A813B812617370752
:1029A00030F081E0DF91CF911F910F9108958B015D
:1029B0006F5F7F4F0E944922009759F09983888367
:1029C0001B830A832C813D81232B59F7FC01108244
:1029D000E8CF80E0E7CFCF93DF93EC018881998146
:1029E000009711F00E94C021198218821D821C825A
:1029F0001B821A82DF91CF9108950F931F93CF937B
:102A0000DF93EC010C811D810F5F1F4FB8010E9405
:102A1000C314882391F0288139818C819D8169E0DC
:102A200072E0820F931F0E941B231D830C83CE0133
:102A3000DF91CF911F910F910895CE010E94EB1469
:102A4000F6CFEF92FF920F931F93CF93DF93EC019A
:102A5000FB01E080F180E114F10411F104811581A2
:102A600001151105A9F08C819D81080F191FB8016E
:102A7000CE010E94C314882399F0288139818C816A
:102A80009D81B701820F931F0E941B231D830C831E
:102A9000CE01DF91CF911F910F91FF90EF9008959C
:102AA000CE010E94EB14F4CFEF92FF920F931F938D
:102AB000CF93DF93EC017B018A01BA010E94C3141A
:102AC00081110BC0CE010E94EB14CE01DF91CF919A
:102AD0001F910F91FF90EF9008951D830C83B70114
:102AE000888199810E941B23F0CFCF93DF93EC0163
:102AF000FB018617970749F06081718161157105A7
:102B000041F0448155810E945415CE01DF91CF914F
:102B100008950E94EB14F9CFFC01118210821382F8
:102B20001282158214820C947515FC011182108298
:102B30001382128215821482FB0101900020E9F7B2
:102B40003197AF01461B570B0C945415FC01808143
:102B50009181009711F00C94C02108951F920F925B
:102B60000FB60F9211242F933F934F935F936F9360
:102B70007F938F939F93AF93BF93EF93FF9384EDD6
:102B800092E00E948506FF91EF91BF91AF919F91D6
:102B90008F917F916F915F914F913F912F910F9006
:102BA0000FBE0F901F9018951F920F920FB60F92A5
:102BB00011242F938F939F93EF93FF93E091E4025F
:102BC000F091E5028081E091EA02F091EB0282FD52
:102BD0001BC090818091ED028F5F8F732091EE0278
:102BE000821741F0E091ED02F0E0EC52FD4F958F3D
:102BF0008093ED02FF91EF919F918F912F910F9014
:102C00000FBE0F901F9018958081F4CF1F920F92E6
:102C10000FB60F9211242F933F938F939F93AF93EF
:102C2000BF938091CC029091CD02A091CE02B09141
:102C3000CF023091B30223E0230F2D3758F50196D0
:102C4000A11DB11D2093B3028093CC029093CD02BD
:102C5000A093CE02B093CF028091B4029091B502BE
:102C6000A091B602B091B7020196A11DB11D80934B
:102C7000B4029093B502A093B602B093B702BF918D
:102C8000AF919F918F913F912F910F900FBE0F9019
:102C90001F90189526E8230F0296A11DB11DD2CFD3
:102CA0001F920F920FB60F9211242F933F934F93C1
:102CB0005F936F937F938F939F93AF93BF93EF93A4
:102CC000FF938091B900887F803609F44AC0F0F5FF
:102CD000883209F4A7C018F5803109F49BC0B8F414
:102CE000882309F4F9C0883009F494C0FF91EF916A
:102CF000BF91AF919F918F917F916F915F914F9114
:102D00003F912F910F900FBE0F901F901895883113
:102D100009F488C0803251F780938F0214C0803448
:102D200009F49DC040F48033B9F38833F9F68093F9
:102D30008F0285ECB0C0803509F485C0883509F470
:102D400096C0883499F60E943208D0CF883909F4A9
:102D50008CC038F5883729F050F4883611F0803768
:102D600029F683E08093BF0210928E0257C0883804
:102D700009F47BC0803919F0803809F0B7CF809111
:102D80008E02803208F071C0E0918E0281E08E0FD9
:102D900080938E028091BB00F0E0E259FD4F80836A
:102DA0003DC0803B39F0E0F4803A09F479C0883ABC
:102DB00009F09CCF84E08093BF0210926D021092C4
:102DC0006C02E091BB02F091BC02099580916C020B
:102DD00081110FC081E080936C0210924C0209C0F7
:102DE000803C09F4A6CF883C09F4A3CF883B09F0C6
:102DF0007DCFE0916D0281E08E0F80936D02F0E057
:102E0000E45BFD4F80818093BB0090916D028091C7
:102E10006C0229C08091B2028093BB0085EC809344
:102E2000BC0064CF9091B1028091B002981758F520
:102E3000E091B10281E08E0F8093B102F0E0E057A3
:102E4000FD4F8081E9CFE091B10281E08E0F809348
:102E5000B1028091BB00F0E0E057FD4F808390917C
:102E6000B1028091B0029817C8F285E8D8CFE091FE
:102E7000B10281E08E0F8093B1028091BB00F0E03F
:102E8000E057FD4F80838091BE0281115CCF81E0CD
:102E90008093BD0284EA8093BC001092BF0226CFCB
:102EA00085EC8093BC001092BF0280918E0280322C
:102EB00030F4E0918E02F0E0E259FD4F1082609113
:102EC0008E0270E0E091B902F091BA028EE692E0D3
:102ED000099510928E020ACF10928F0234CF109271
:102EE000D7021092D60288EE93E0A0E0B0E0809383
:102EF000D8029093D902A093DA02B093DB0222E2C7
:102F000031E03093D5022093D40225EC30E03093A9
:102F1000E1022093E00224EC30E03093E3022093BE
:102F2000E20220EC30E03093E5022093E40221EC51
:102F300030E03093E7022093E60222EC30E0309359
:102F4000E9022093E80226EC30E03093EB02209374
:102F5000EA021092ED021092EE021092EF0210922D
:102F6000F002109291041092900480939204909336
:102F70009304A0939404B093950484E391E0909318
:102F80008F0480938E0410929D0410929C0420E87C
:102F900030E030939F0420939E0480E290E0909371
:102FA000A1048093A0043093A3042093A2049093DF
:102FB000A5048093A4041092B0041092A704109268
:102FC000A6041092A9041092A80481E08093AF0493
:102FD0008093AE042FEF3FEF3093AD042093AC0409
:102FE0003093AB042093AA048093B1041092B204EE
:102FF0001092B4041092B30480E591E090939B0486
:1030000080939A041092B6041092B5048EE894E06E
:103010009093B8048093B7041092BA041092B90444
:103020008FEF8093BE048093BF048093C00480938D
:10303000C1048093C20480E89AE1A6E0B0E08093E6
:10304000CF049093D004A093D104B093D20480EA2B
:1030500096E8A1E0B0E08093D3049093D404A093C9
:10306000D504B093D60480E58093D8041092D90497
:103070006AE771E088E894E00E9495156AE771E0DC
:1030800082E894E00E9495156AE771E08CE794E08D
:103090000E94951510920F041092130410921204BE
:1030A0001092140486E491E090930E0480930D0432
:1030B000E9E2F4E085E694E010821482138215823E
:1030C00036968E179F07C1F784E091E090937004C5
:1030D00080936F0480E091E0909372048093710478
:1030E00084E0809373048093740488E091E090936B
:1030F0006E0480936D048AE090E090937604809350
:10310000750484EF91E09093780480937704109293
:103110007B0410927A041092690410926A0410924F
:103120006B0410926C04109279046BE771E081E7F4
:1031300093E00E9495156DE771E087E793E00E94A8
:1031400095156FE771E08DE793E00E94951561E8B2
:1031500071E083E893E00E94951563E871E089E8E7
:1031600093E00E94951565E871E08FE893E00E9476
:10317000951567E871E085E993E00E94951569E887
:1031800071E08BE993E00E9495156BE871E081EAAC
:1031900093E00E9495156DE871E087EA93E00E9444
:1031A00095156FE871E08DEA93E00E94951561E94D
:1031B00071E083EB93E00E94951563E971E089EB80
:1031C00093E00E94951565E971E08FEB93E00E9412
:1031D000951567E971E085EC93E00E94951569E922
:1031E00071E08BEC93E00E9495156BE971E081ED45
:1031F00093E00E9495156DE971E087ED93E00E94E0
:1032000095156FE971E08DED93E00E94951561EAE7
:1032100071E083EE93E00E94951563EA71E089EE18
:1032200093E00E94951565EA71E08FEE93E00E94AD
:10323000951567EA71E085EF93E00E94951569EABC
:1032400071E08BEF93E00E9495156BEA71E081E0ED
:1032500094E00E9495156DEA71E087E094E00C948B
:103260009515CF93DF93CDB7DEB768970FB6F89477
:10327000DEBF0FBECDBF789484B5826084BD84B5B7
:10328000816084BD85B5826085BD85B5816085BD61
:1032900080916E00816080936E0010928100809119
:1032A00081008260809381008091810081608093A1
:1032B0008100809180008160809380008091B100C6
:1032C00084608093B1008091B00081608093B000F1
:1032D00080917A00846080937A0080917A00826085
:1032E00080937A0080917A00816080937A00809147
:1032F0007A00806880937A001092C1008091B904AE
:103300009091BA04892B11F10E942F142091A004EE
:103310003091A10480919E0490919F042132310547
:103320000CF0DAC0B9016052710977FF02C06F5F1B
:103330007F4F759567958357910997FD019600E238
:1033400010E023E730E044EE55E0D9C02091A0041E
:103350003091A104C901079697FD0796B3E09595B2
:103360008795BA95E1F720919E0430919F04AC01B6
:10337000429FC001439F900D529F900D11240E94C7
:1033800024219093BA048093B904892B09F0BCCF0F
:10339000E091E402F091E50282E08083E091E002B6
:1033A000F091E1021082E091E202F091E3028FECF1
:1033B00080831092EC02E091E802F091E90286E04D
:1033C0008083E091E602F091E70280818061808352
:1033D000E091E602F091E702808188608083E091CD
:1033E000E602F091E702808180688083E091E60246
:1033F000F091E70280818F7D80830E942F141092CC
:10340000A7041092A60480E190E09093A904809311
:10341000A80481E090E09093AD048093AC04909375
:10342000AB048093AA048093AE048093AF046FEA48
:1034300071E08AE994E00E944F1468E771E08AE93C
:1034400094E00E944F140E94B60C6AE070E080E0A5
:1034500090E00E9400088E010F5F1F4F5AE1452E39
:10346000512CFF24F39446E0E42EF09279048FB7B8
:10347000F8944091CC025091CD026091CE027091AF
:10348000CF028FBF8091690490916A04A0916B0470
:10349000B0916C04481B590B6A0B7B0B809175042F
:1034A00090917604B0E0A0E084179507A607B707CF
:1034B00008F07AC3D12C80917304D81608F028C282
:1034C000E0916F04F0917004ED0DF11D62E08081D8
:1034D0000E949B07D394EFCFB9016054710977FF25
:1034E00002C06F5F7F4F759567958255910997FD73
:1034F000019600E410E022E530E044EC57E09595B9
:1035000087950E941D138CE38093BC048091B704BF
:103510009091B804892B09F405C18091A004909181
:10352000A104809709F0FCC08CE38093BB04109247
:10353000C1021092C0021092D1021092D0021092D9
:10354000BF0281E08093BE021092BD0261E082E181
:103550000E94690761E083E10E9469078091B900D8
:103560008E7F8093B9008091B9008D7F8093B900E0
:1035700088E48093B80085E48093BC0085E096E001
:103580009093BC028093BB0286E096E09093BA02CF
:103590008093B9028091C20487FD1EC061E00E9441
:1035A0009B0761E08091C2040E94690761E070E0BE
:1035B00080E090E00E94000860E08091C2040E94D8
:1035C00069076AE070E080E090E00E94000861E036
:1035D0008091C2040E9469078091B7049091B80459
:1035E000892B09F45EC12091CF043091D004409121
:1035F000D1045091D20460E074E284EF90E00E9424
:10360000E8202051310941095109569547953795D0
:1036100027952093B80064E08EEA95E00E94A30B02
:103620006091A00461508AE994E00E94510C64E02A
:103630008AEA95E00E94A30B8091BC0460E181308E
:1036400009F064E18AE994E00E94510C64E086EAA2
:1036500095E00E94A30B8FE88093D70480919E048D
:1036600090919F048038910509F034C18091A004A5
:103670009091A1048034910509F03CC18091BC0473
:10368000813009F025C18FE98093D70412E16AEDFA
:103690008AE994E00E94510C612F8AE994E00E942B
:1036A000510C61E88AE994E00E94510C6091D704C2
:1036B0008AE994E00E94510C69ED8AE994E00E9445
:1036C000510C8091BC0462E2813009F061EF8AE91B
:1036D00094E00E94510C66E080EA95E00E94A30B02
:1036E0008091B7049091B804892B09F407C1209107
:1036F000D3043091D4044091D5045091D60460E0B5
:1037000074E284EF90E00E94E820205131094109E1
:10371000510956954795379527952093B80038CE8F
:103720008DE303CF61E08091C0040E949B0761E0BC
:103730008091C1040E949B078091C004082E000C58
:10374000990BFC01E053FA4FE491F0E0EE0FFF1FFC
:10375000EA53FA4F259134913093C8042093C7045B
:10376000FC01EE54FA4FE491E093CD048091C10442
:10377000082E000C990BFC01E053FA4FE491F0E0A5
:10378000EE0FFF1FEA53FA4FA591B491B093CA040C
:10379000A093C904FC01EE54FA4FE491E093CE04E7
:1037A0008C91E82BEC938091B5049091B604892B11
:1037B00009F434C01FB7F8948091B802811127C072
:1037C000EAEDF5E08491ECEBF5E09491E82FF0E080
:1037D000EE0FFF1FEA56FA4FA591B491EC91E92341
:1037E00021F461E08AE00E94690761E08AE00E94BA
:1037F0009B078CB580618CBD8CB580648CBD61E00D
:103800008DE00E949B0761E08BE00E949B07809106
:10381000B8028F5F8093B8021FBFBCCE61E0809179
:10382000BE040E949B0761E08091BF040E949B0739
:103830008091BE04082E000C990BFC01E053FA4F56
:10384000E491F0E0EE0FFF1FEA53FA4F2591349117
:103850003093C4042093C304FC01EE54FA4FE49166
:10386000E093CB048091BF04082E000C990BFC015F
:10387000E053FA4FE491F0E0EE0FFF1FEA53FA4FE6
:10388000A591B491B093C604A093C504FC01EE5475
:10389000FA4FE491E093CC048C91E095E823EC930B
:1038A00079CE8091B5049091B604892B31F0809146
:1038B000D8049091D9040E94B30CE091C904F0910E
:1038C000CA0490818091CE04809589238083A3CE01
:1038D0008FECDACE8036910569F48091A004909146
:1038E000A104409739F48091BC04813029F480E12F
:1038F0008093D70412E0CBCE8FEAFACFE091C904CF
:10390000F091CA0480819091CE04892B808340CDB0
:10391000312C80917404381608F066C0C32CD12C69
:10392000E0917104F0917204EC0DFD1D61E0808165
:103930000E949B07E0917104F0917204EC0DFD1D53
:1039400060E080810E94690781E090E0A0E0B0E043
:10395000032C04C0880F991FAA1FBB1F0A94D2F71B
:103960004C015C01A094B094212C80917304281622
:1039700020F5622C712CE0916F04F0917004E60D3B
:10398000F71D80810E943D07F3013496892B61F475
:10399000EE0FFF1FE35FFB4F8081918188299929FA
:1039A000918380832394E1CFEE0FFF1FE35FFB4FF2
:1039B000808191818A219B21F3CFE0917104F09164
:1039C0007204EC0DFD1D61E080810E946907809109
:1039D000710490917204C80ED91E60E0F6018081D6
:1039E0000E949B07339495CF9DE0C92E94E0D92E79
:1039F000F601878D90A1892B31F4148E2FEF3FEFC4
:103A0000368F258F11A2369634E0E934F30789F713
:103A1000B12C80917304B81608F052C0A12C8B2CE5
:103A2000912C880C991CA4014B5E5B4F4A0120919C
:103A30007404A21608F042C0F401608171810A2C5E
:103A400002C0769567950A94E2F7B29E9001112420
:103A50002A0D311DEDE0F4E080E0458D568D2417F0
:103A6000350709F408C38F5F36968A30B1F760FFD7
:103A700023C0EDE0F4E090E080E0448D411117C0F8
:103A8000E0916D04F0916E04E20FF31F4081E89E17
:103A9000F001E99EF00D1124E35FFB4F448F368F58
:103AA000258F10A2178E61E00E94950505C0019632
:103AB00036968A30910509F7A394B9CFB394A9CF6C
:103AC00080E0F60191A19111892FF6E0CF0ED11C73
:103AD00029E4C21624E0D206A1F79FB7F8944091DA
:103AE000CC025091CD026091CE027091CF029FBF67
:103AF0004093690450936A0460936B0470936C0460
:103B0000882309F451C080912E04882309F44CC005
:103B1000C0902C04D0902D0431E0C316D10409F0DC
:103B200043C080912904A82E082E000CBB088134C4
:103B300009F489C0A4F48A3209F44FC21CF08053FE
:103B40008A30A8F180E090E0892B09F48ECC0E94A5
:103B50007106882309F485CC0E9400007FCC833451
:103B600009F40BC20CF4C0C0843461F70E942F1416
:103B70001092A7041092A6041092A9041092A8040F
:103B8000D092AD04C092AC04D092AB04C092AA040F
:103B9000F092AE04F092AF046CE774E0C8010E94AA
:103BA0008C1566EF71E006C210927904CBCF80913C
:103BB000CA029091CB022AE0289FA001299F500DB4
:103BC000112480E3A81AB108A40EB51EB092CB024E
:103BD000A092CA020E942F141092A7041092A60469
:103BE0001092A9041092A804D092AD04C092AC0423
:103BF000D092AB04C092AA04F092AE04F092AF044B
:103C00004501BB0CAA08BB082AE0B501A401B7FE18
:103C10000DC06DE28AE994E00E9471104427552797
:103C2000BA01481959096A097B092AE08AE994E02E
:103C30000E94751468E771E08AE994E00E944F14CD
:103C40000E94B60C7FCFA090CA02B090CB02B09277
:103C5000C902A092C8020E942F141092A7041092C9
:103C6000A6041092A9041092A804D092AD04C092A8
:103C7000AC04D092AB04C092AA04F092AE04F092CD
:103C8000AF041C8A1B8A1E8A1D8A188E1F8A4AE06E
:103C9000B801C5010E946820F80101900020E9F7F1
:103CA0003197AF01401B510BB801CE0143960E94E2
:103CB000541565EC71E0C8010E949515BE016D5E5A
:103CC0007F4FC8010E9421150E945E14C8010E9406
:103CD000A615CE0143960E94A6150E94B60C10921E
:103CE000CB021092CA022ECFA090CA02B090CB0293
:103CF0009AE1A916B104D4F10E942F141092A704DE
:103D00001092A6041092A9041092A804D092AD04B7
:103D1000C092AC04D092AB04C092AA04F092AE045C
:103D2000F092AF046CEC71E08AE994E00E944F14C9
:103D300068E771E08AE994E00E944F1468E874E053
:103D4000C8010E948C1562ED71E0CE0143960E947D
:103D50009515B801CE0143960E9421150E945E146C
:103D6000CE0143960E94A615C801B5CFB092C702F6
:103D7000A092C6020E942F141092A7041092A604CB
:103D80001092A9041092A804D092AD04C092AC0481
:103D9000D092AB04C092AA04F092AE04F092AF04A9
:103DA000EA9CC001EB9C900D11248F589C4F0E94FF
:103DB0005E140E94B60C2091C6023091C702E29EAA
:103DC000C001E39E900D1124FC01EF58FC4F5F01F0
:103DD00068E874E0C8010E948C15B501C8010E9412
:103DE0002115BC0188E894E00E947515C8010E9465
:103DF000A6150E942F141092A7041092A6042AE080
:103E000030E03093A9042093A804D092AD04C0926E
:103E1000AC04D092AB04C092AA04F092AE04F0922B
:103E2000AF0468E874E0C8010E948C1562ED71E08F
:103E3000CE0143960E949515B801CE0143960E948B
:103E400021150E945E14CE0143960E94A615C8015A
:103E50000E94A6150E94B60CA090CA02B090CB0298
:103E6000C090C802D090C90262E874E0C8010E9404
:103E70008C15C5018C0D9D1DB2010E94D420E89EB9
:103E8000B001E99E700D11246F587C4FC8010E944B
:103E90002115BC0182E894E00E947515C8010E94BA
:103EA000A61545018C189D08AC14BD040CF054C037
:103EB000C401B2010E94D4204C01092E000CAA08B2
:103EC000BB088092C2029092C302A092C402B09238
:103ED000C5022AE040E050E0BA01892B69F06DE2AA
:103EE00084ED92E00E94A70644275527BA0148199D
:103EF00059096A097B092AE084ED92E00E94751451
:103F000068E771E084ED92E00E944F148091C20254
:103F10009091C302A091C402B091C5024A96A11D1E
:103F2000B11DE89E9001E99E300D1124A9014F5862
:103F30005C4F6A016CE774E0C8010E948C15B60101
:103F4000C8010E942115BC018CE794E00E94751500
:103F5000C8010E94A615C3CE6CE774E0C8010E9498
:103F60008C15C401B2010E94D420E89EB001E99EE4
:103F7000700D11246F587C4FE3CF0E942F141092C4
:103F8000A7041092A6041092A9041092A804D0923B
:103F9000AD04C092AC04D092AB04C092AA04F092DB
:103FA000AE04F092AF0462E874E0C8010E948C1580
:103FB00061EE71E0CE0143960E949515B801CE01E5
:103FC00043960E9421150E945E14CE0143960E94E2
:103FD000A615C8010E94A61533CE68E874E0C80192
:103FE0000E948C15C8010E94FD14BC0188E894E071
:103FF0000E947515C8010E94A61562E874E0C80108
:104000000E948C15C8010E94FD14BC0182E894E056
:104010000E947515C8010E94A6156CE774E0C801DE
:104020000E948C15C8010E94FD14BC018CE794E02D
:104030000E947515C8010E94A6150E942F141092A7
:10404000A7041092A6041092A9041092A804D0927A
:10405000AD04C092AC04D092AB04C092AA04F0921A
:10406000AE04F092AF0468E874E0C8010E948C15B9
:1040700062ED71E09FCF617017CDCF93DF93CDE0FC
:10408000D4E02697CE010E94A61583E0C137D80759
:10409000C1F78CE794E00E94A61582E894E00E94A4
:1040A000A61588E894E00E94A61580E591E090931B
:1040B0009B0480939A048091B9049091BA0400976C
:1040C00021F0DF91CF910C94C021DF91CF91089521
:1040D000BB274A3031F4992322F4BDE290958195B3
:1040E0009F4F0C947420BB27FB015527AA27880FEC
:1040F000991FAA1FA41710F0A41B83955051B9F75C
:10410000A05DAA3308F0A95DA193009779F7B111DA
:10411000B1931192CB010C948D20DC01FC01672F2F
:1041200071917723E1F7329704C07C916D9370838E
:104130006291AE17BF07C8F308952F923F924F9236
:104140005F926F927F928F929F92AF92BF92CF9227
:10415000DF92EF92FF920F931F93CF93DF93CDB730
:10416000DEB7CA1BDB0B0FB6F894DEBF0FBECDBFA8
:1041700009942A88398848885F846E847D848C8479
:104180009B84AA84B984C884DF80EE80FD800C8182
:104190001B81AA81B981CE0FD11D0FB6F894DEBF65
:1041A0000FBECDBFED01089597FB072E16F40094C6
:1041B00007D077FD09D00E940A2107FC05D03EF404
:1041C000909581959F4F0895709561957F4F0895C3
:1041D000A1E21A2EAA1BBB1BFD010DC0AA1FBB1F0B
:1041E000EE1FFF1FA217B307E407F50720F0A21B7D
:1041F000B30BE40BF50B661F771F881F991F1A94EA
:1042000069F760957095809590959B01AC01BD0113
:10421000CF010895AA1BBB1B51E107C0AA1FBB1FFA
:10422000A617B70710F0A61BB70B881F991F5A9542
:10423000A9F780959095BC01CD010895EE0FFF1F61
:104240000590F491E02D09940F931F93CF93DF9382
:104250008230910510F482E090E0E091DC04F0916E
:10426000DD0430E020E0B0E0A0E0309799F42115C3
:10427000310509F44AC0281B390B24303105D8F523
:104280008A819B816115710589F1FB01938382838A
:10429000FE0111C0408151810281138148175907E5
:1042A000E0F04817590799F4109761F012960C93B3
:1042B000129713961C933296CF01DF91CF911F91E5
:1042C0000F9108950093DC041093DD04F4CF2115C1
:1042D000310551F04217530738F0A901DB019A016B
:1042E000BD01DF01F801C1CFEF01F9CF9093DD04EB
:1042F0008093DC04CDCFFE01E20FF31F81939193F5
:104300002250310939832883D7CF2091DA043091A4
:10431000DB04232B41F420911A0130911B013093CF
:10432000DB042093DA042091180130911901211542
:10433000310541F42DB73EB740911C0150911D014C
:10434000241B350BE091DA04F091DB04E217F3074C
:10435000A0F42E1B3F0B2817390778F0AC014E5FF5
:104360005F4F2417350748F04E0F5F1F5093DB0453
:104370004093DA04819391939FCFF0E0E0E09CCFEB
:10438000CF93DF930097E9F0FC01329713821282FA
:10439000A091DC04B091DD04ED0130E020E0109745
:1043A000A1F420813181820F931F2091DA04309192
:1043B000DB042817390709F061C0F093DB04E093B0
:1043C000DA04DF91CF910895EA01CE17DF07E8F50F
:1043D0004A815B819E0141155105B1F7E901FB83DB
:1043E000EA8349915991C40FD51FEC17FD0761F479
:1043F000808191810296840F951FE90199838883BA
:10440000828193819B838A83F0E0E0E012968D9114
:104410009C9113970097B9F52D913C911197CD017F
:104420000296820F931F2091DA043091DB04281743
:10443000390739F6309751F51092DD041092DC04FB
:10444000B093DB04A093DA04BCCFD383C283408152
:104450005181840F951FC817D90761F44E5F5F4FD4
:1044600088819981480F591F518340838A819B819C
:10447000938382832115310509F0B0CFF093DD04D9
:10448000E093DC049ECFFD01DC01C0CF13821282D9
:10449000D7CFB0E0A0E0EFE4F2E20C949F208C01D3
:1044A000009751F4CB010E9424218C01C801CDB7A3
:1044B000DEB7E0E10C94BB20FC01E60FF71F9C0186
:1044C00022503109E217F30708F49DC0D901CD91BC
:1044D000DC911197C617D70798F0C530D10530F396
:1044E000CE0104978617970708F3C61BD70B2297B0
:1044F000C193D1936D937C93CF010E94C021D6CFFD
:104500005B01AC1ABD0A4C018C0E9D1EA091DC040F
:10451000B091DD04512C412CF12CE12C109731F598
:104520008091DA049091DB048815990509F05CC04C
:104530004616570608F058C080911801909119014D
:10454000009741F48DB79EB740911C0150911D0119
:10455000841B950BE817F90708F055C0F093DB04AE
:10456000E093DA04F90171836083A0CF8D919C916F
:10457000119712966C90129713967C901397A8152A
:10458000B90559F56C0142E0C40ED11CCA14DB0414
:1045900020F1AC014A195B09DA011296159780F0F7
:1045A0006282738251834083D9016D937C93E114BD
:1045B000F10471F0D7011396FC93EE93129776CF26
:1045C00022968C0F9D1FF90191838083F301EFCF19
:1045D000F093DD04E093DC0469CF4816590608F433
:1045E0002C017D01D3019ACFCB010E9424217C01B3
:1045F000009749F0AE01B8010E940B23C8010E9448
:10460000C021870153CF10E000E050CF81E090E05F
:10461000F8940C942223FB01DC0102C001900D925E
:1046200041505040D8F70895DC0101C06D934150CE
:104630005040E0F70895FB01DC0101900D9200204D
:10464000E1F7089515E0C6E4D5E004C0FE010E943C
:0E4650001E212196C734D107C9F7F894FFCF79
:10465E0006070A0902030405313233413435364266
:10466E00373839432A3023440000DE04800000002E
:10467E000000A70607063406F4066506430657062D
:10468E0000000000B9088C082C147105850872080A
:10469E00630800000000D7079707660700000000B8
:1046AE00711007062C142B14EC0A71051613EE125A
:1046BE000A13FE127E137105370EE00D5C0AA50A71
:1046CE0037121A12A21143110D0A00410042004383
:1046DE00004400450046004700480049004A004B90
:1046EE00004C004D004E004F005000510052005340
:1046FE00005400550056005700580059005A004308
:10470E0061657361722043697068657220446563E8
:10471E006F646572004B6579203D20004572726FA3
:10472E0072006C6173745F726573756C74203D20DA
:10473E0000726573756C745F456E6372797074691F
:10474E006F6E203D2000726573756C745F446563F7
:0C475E0072797074696F6E203D200000BD
:00000001FF
